{
  "contractName": "CarSharing",
  "abi": [
    {
      "anonymous": false,
      "inputs": [
        {
          "indexed": false,
          "internalType": "address",
          "name": "user",
          "type": "address"
        },
        {
          "indexed": false,
          "internalType": "string",
          "name": "plateNo",
          "type": "string"
        }
      ],
      "name": "CarReleased",
      "type": "event"
    },
    {
      "anonymous": false,
      "inputs": [
        {
          "indexed": false,
          "internalType": "address",
          "name": "user",
          "type": "address"
        },
        {
          "indexed": false,
          "internalType": "string",
          "name": "plateNo",
          "type": "string"
        }
      ],
      "name": "CarReserved",
      "type": "event"
    },
    {
      "anonymous": false,
      "inputs": [
        {
          "indexed": true,
          "internalType": "address",
          "name": "previousOwner",
          "type": "address"
        },
        {
          "indexed": true,
          "internalType": "address",
          "name": "newOwner",
          "type": "address"
        }
      ],
      "name": "OwnershipTransferred",
      "type": "event"
    },
    {
      "anonymous": false,
      "inputs": [
        {
          "indexed": false,
          "internalType": "address",
          "name": "accountAddress",
          "type": "address"
        },
        {
          "indexed": false,
          "internalType": "uint256",
          "name": "amount",
          "type": "uint256"
        },
        {
          "indexed": false,
          "internalType": "string",
          "name": "message",
          "type": "string"
        }
      ],
      "name": "Received",
      "type": "event"
    },
    {
      "anonymous": false,
      "inputs": [
        {
          "indexed": false,
          "internalType": "address",
          "name": "user",
          "type": "address"
        },
        {
          "indexed": false,
          "internalType": "string",
          "name": "name",
          "type": "string"
        },
        {
          "indexed": false,
          "internalType": "string",
          "name": "license",
          "type": "string"
        }
      ],
      "name": "UserRegistered",
      "type": "event"
    },
    {
      "stateMutability": "payable",
      "type": "fallback",
      "payable": true
    },
    {
      "inputs": [
        {
          "internalType": "string",
          "name": "",
          "type": "string"
        }
      ],
      "name": "cars",
      "outputs": [
        {
          "internalType": "bool",
          "name": "reserved",
          "type": "bool"
        },
        {
          "internalType": "address",
          "name": "reservedBy",
          "type": "address"
        }
      ],
      "stateMutability": "view",
      "type": "function",
      "constant": true
    },
    {
      "inputs": [],
      "name": "owner",
      "outputs": [
        {
          "internalType": "address",
          "name": "",
          "type": "address"
        }
      ],
      "stateMutability": "view",
      "type": "function",
      "constant": true
    },
    {
      "inputs": [
        {
          "internalType": "address",
          "name": "",
          "type": "address"
        }
      ],
      "name": "registered",
      "outputs": [
        {
          "internalType": "uint256",
          "name": "",
          "type": "uint256"
        }
      ],
      "stateMutability": "view",
      "type": "function",
      "constant": true
    },
    {
      "inputs": [],
      "name": "renounceOwnership",
      "outputs": [],
      "stateMutability": "nonpayable",
      "type": "function"
    },
    {
      "inputs": [
        {
          "internalType": "address",
          "name": "",
          "type": "address"
        }
      ],
      "name": "rentStatus",
      "outputs": [
        {
          "internalType": "uint256",
          "name": "",
          "type": "uint256"
        }
      ],
      "stateMutability": "view",
      "type": "function",
      "constant": true
    },
    {
      "inputs": [
        {
          "internalType": "address",
          "name": "newOwner",
          "type": "address"
        }
      ],
      "name": "transferOwnership",
      "outputs": [],
      "stateMutability": "nonpayable",
      "type": "function"
    },
    {
      "inputs": [
        {
          "internalType": "address",
          "name": "",
          "type": "address"
        }
      ],
      "name": "users",
      "outputs": [
        {
          "internalType": "string",
          "name": "name",
          "type": "string"
        },
        {
          "internalType": "string",
          "name": "license",
          "type": "string"
        },
        {
          "internalType": "bool",
          "name": "registered",
          "type": "bool"
        },
        {
          "internalType": "bool",
          "name": "rented",
          "type": "bool"
        },
        {
          "internalType": "bool",
          "name": "banned",
          "type": "bool"
        }
      ],
      "stateMutability": "view",
      "type": "function",
      "constant": true
    },
    {
      "inputs": [
        {
          "internalType": "string",
          "name": "name",
          "type": "string"
        },
        {
          "internalType": "string",
          "name": "license",
          "type": "string"
        }
      ],
      "name": "registerDriver",
      "outputs": [],
      "stateMutability": "nonpayable",
      "type": "function"
    },
    {
      "inputs": [
        {
          "internalType": "string",
          "name": "plateNo",
          "type": "string"
        }
      ],
      "name": "unrentCar",
      "outputs": [],
      "stateMutability": "payable",
      "type": "function",
      "payable": true
    },
    {
      "inputs": [
        {
          "internalType": "uint256",
          "name": "x",
          "type": "uint256"
        },
        {
          "internalType": "string",
          "name": "plateNo",
          "type": "string"
        }
      ],
      "name": "rentCar",
      "outputs": [],
      "stateMutability": "payable",
      "type": "function",
      "payable": true
    },
    {
      "inputs": [],
      "name": "getBalance",
      "outputs": [
        {
          "internalType": "uint256",
          "name": "",
          "type": "uint256"
        }
      ],
      "stateMutability": "view",
      "type": "function",
      "constant": true
    },
    {
      "inputs": [
        {
          "internalType": "address",
          "name": "_user",
          "type": "address"
        }
      ],
      "name": "getRentStatus",
      "outputs": [
        {
          "internalType": "bool",
          "name": "",
          "type": "bool"
        }
      ],
      "stateMutability": "view",
      "type": "function",
      "constant": true
    },
    {
      "inputs": [
        {
          "internalType": "address",
          "name": "_user",
          "type": "address"
        }
      ],
      "name": "getRegistrationStatus",
      "outputs": [
        {
          "internalType": "bool",
          "name": "",
          "type": "bool"
        }
      ],
      "stateMutability": "view",
      "type": "function",
      "constant": true
    }
  ],
  "bytecode": "0x608060405234801561001057600080fd5b5061002d61002261003260201b60201c565b61003a60201b60201c565b6100fe565b600033905090565b60008060009054906101000a900473ffffffffffffffffffffffffffffffffffffffff169050816000806101000a81548173ffffffffffffffffffffffffffffffffffffffff021916908373ffffffffffffffffffffffffffffffffffffffff1602179055508173ffffffffffffffffffffffffffffffffffffffff168173ffffffffffffffffffffffffffffffffffffffff167f8be0079c531659141344cd1fd0a4f28419497f9722a3daafe3b4186f6b6457e060405160405180910390a35050565b611bf78061010d6000396000f3fe6080604052600436106100c65760003560e01c8063855dce451161007f578063a8af4ff511610059578063a8af4ff51461028c578063b2dd5c07146102c9578063e4d48f6714610306578063f2fde38b14610343576100c7565b8063855dce45146101e35780638da5cb5b14610220578063a87430ba1461024b576100c7565b806312065fe0146101025780633390854f1461012d57806341a2d18014610156578063493d6fd014610194578063524baa50146101b0578063715018a6146101cc576100c7565b5b7f59e04c3f0d44b7caf6e8ef854b61d9a51cf1960d7a88ff6356cc5e946b4b583233346040516100f892919061128d565b60405180910390a1005b34801561010e57600080fd5b5061011761036c565b60405161012491906112c9565b60405180910390f35b34801561013957600080fd5b50610154600480360381019061014f919061143e565b6103b3565b005b34801561016257600080fd5b5061017d600480360381019061017891906114b6565b61058e565b60405161018b92919061151a565b60405180910390f35b6101ae60048036038101906101a9919061156f565b6105f5565b005b6101ca60048036038101906101c591906114b6565b6108d6565b005b3480156101d857600080fd5b506101e1610c6f565b005b3480156101ef57600080fd5b5061020a600480360381019061020591906115f7565b610cf7565b6040516102179190611624565b60405180910390f35b34801561022c57600080fd5b50610235610d50565b604051610242919061163f565b60405180910390f35b34801561025757600080fd5b50610272600480360381019061026d91906115f7565b610d79565b6040516102839594939291906116d1565b60405180910390f35b34801561029857600080fd5b506102b360048036038101906102ae91906115f7565b610ee6565b6040516102c09190611624565b60405180910390f35b3480156102d557600080fd5b506102f060048036038101906102eb91906115f7565b610f3f565b6040516102fd91906112c9565b60405180910390f35b34801561031257600080fd5b5061032d600480360381019061032891906115f7565b610f57565b60405161033a91906112c9565b60405180910390f35b34801561034f57600080fd5b5061036a600480360381019061036591906115f7565b610f6f565b005b6000600160003373ffffffffffffffffffffffffffffffffffffffff1673ffffffffffffffffffffffffffffffffffffffff16815260200190815260200160002054905090565b600360003373ffffffffffffffffffffffffffffffffffffffff1673ffffffffffffffffffffffffffffffffffffffff16815260200190815260200160002060020160009054906101000a900460ff1615610443576040517f08c379a000000000000000000000000000000000000000000000000000000000815260040161043a9061177e565b60405180910390fd5b6040518060a0016040528083815260200182815260200160011515815260200160001515815260200160001515815250600360003373ffffffffffffffffffffffffffffffffffffffff1673ffffffffffffffffffffffffffffffffffffffff16815260200190815260200160002060008201518160000190805190602001906104ce929190611133565b5060208201518160010190805190602001906104eb929190611133565b5060408201518160020160006101000a81548160ff02191690831515021790555060608201518160020160016101000a81548160ff02191690831515021790555060808201518160020160026101000a81548160ff0219169083151502179055509050507f92822564bab8864c3a47b34e8d23fbce5c46234eb5da261f94087b995ac0f33b3383836040516105829392919061179e565b60405180910390a15050565b6004818051602081018201805184825260208301602085012081835280955050505050506000915090508060000160009054906101000a900460ff16908060000160019054906101000a900473ffffffffffffffffffffffffffffffffffffffff16905082565b600360003373ffffffffffffffffffffffffffffffffffffffff1673ffffffffffffffffffffffffffffffffffffffff16815260200190815260200160002060020160009054906101000a900460ff16610684576040517f08c379a000000000000000000000000000000000000000000000000000000000815260040161067b9061182f565b60405180910390fd5b600360003373ffffffffffffffffffffffffffffffffffffffff1673ffffffffffffffffffffffffffffffffffffffff16815260200190815260200160002060020160019054906101000a900460ff1615610714576040517f08c379a000000000000000000000000000000000000000000000000000000000815260040161070b906118c1565b60405180910390fd5b600360003373ffffffffffffffffffffffffffffffffffffffff1673ffffffffffffffffffffffffffffffffffffffff16815260200190815260200160002060020160029054906101000a900460ff16156107a4576040517f08c379a000000000000000000000000000000000000000000000000000000000815260040161079b90611953565b60405180910390fd5b6001600360003373ffffffffffffffffffffffffffffffffffffffff1673ffffffffffffffffffffffffffffffffffffffff16815260200190815260200160002060020160016101000a81548160ff021916908315150217905550600160048260405161081191906119af565b908152602001604051809103902060000160006101000a81548160ff0219169083151502179055503360048260405161084a91906119af565b908152602001604051809103902060000160016101000a81548173ffffffffffffffffffffffffffffffffffffffff021916908373ffffffffffffffffffffffffffffffffffffffff1602179055507fda064db6151e7abee2db76f38c7b7b8fd72fca8873ef130cf582722617e9a72933826040516108ca9291906119c6565b60405180910390a15050565b600360003373ffffffffffffffffffffffffffffffffffffffff1673ffffffffffffffffffffffffffffffffffffffff16815260200190815260200160002060020160009054906101000a900460ff16610965576040517f08c379a000000000000000000000000000000000000000000000000000000000815260040161095c9061182f565b60405180910390fd5b8060048160405161097691906119af565b908152602001604051809103902060000160009054906101000a900460ff166109d4576040517f08c379a00000000000000000000000000000000000000000000000000000000081526004016109cb90611a42565b60405180910390fd5b3373ffffffffffffffffffffffffffffffffffffffff166004826040516109fb91906119af565b908152602001604051809103902060000160019054906101000a900473ffffffffffffffffffffffffffffffffffffffff1673ffffffffffffffffffffffffffffffffffffffff1614610a83576040517f08c379a0000000000000000000000000000000000000000000000000000000008152600401610a7a90611a42565b60405180910390fd5b600360003373ffffffffffffffffffffffffffffffffffffffff1673ffffffffffffffffffffffffffffffffffffffff16815260200190815260200160002060020160029054906101000a900460ff1615610b13576040517f08c379a0000000000000000000000000000000000000000000000000000000008152600401610b0a90611953565b60405180910390fd5b6000600160003373ffffffffffffffffffffffffffffffffffffffff1673ffffffffffffffffffffffffffffffffffffffff1681526020019081526020016000205490506000600160003373ffffffffffffffffffffffffffffffffffffffff1673ffffffffffffffffffffffffffffffffffffffff168152602001908152602001600020819055506000600360003373ffffffffffffffffffffffffffffffffffffffff1673ffffffffffffffffffffffffffffffffffffffff16815260200190815260200160002060020160016101000a81548160ff0219169083151502179055506000600484604051610c0991906119af565b908152602001604051809103902060000160006101000a81548160ff0219169083151502179055507f3fb606ad6e93d063dfb31f1df7f6e784a02f2f758195cf1489a399a2542cc9b93384604051610c629291906119c6565b60405180910390a1505050565b610c77611067565b73ffffffffffffffffffffffffffffffffffffffff16610c95610d50565b73ffffffffffffffffffffffffffffffffffffffff1614610ceb576040517f08c379a0000000000000000000000000000000000000000000000000000000008152600401610ce290611aae565b60405180910390fd5b610cf5600061106f565b565b6000600360008373ffffffffffffffffffffffffffffffffffffffff1673ffffffffffffffffffffffffffffffffffffffff16815260200190815260200160002060020160019054906101000a900460ff169050919050565b60008060009054906101000a900473ffffffffffffffffffffffffffffffffffffffff16905090565b6003602052806000526040600020600091509050806000018054610d9c90611afd565b80601f0160208091040260200160405190810160405280929190818152602001828054610dc890611afd565b8015610e155780601f10610dea57610100808354040283529160200191610e15565b820191906000526020600020905b815481529060010190602001808311610df857829003601f168201915b505050505090806001018054610e2a90611afd565b80601f0160208091040260200160405190810160405280929190818152602001828054610e5690611afd565b8015610ea35780601f10610e7857610100808354040283529160200191610ea3565b820191906000526020600020905b815481529060010190602001808311610e8657829003601f168201915b5050505050908060020160009054906101000a900460ff16908060020160019054906101000a900460ff16908060020160029054906101000a900460ff16905085565b6000600360008373ffffffffffffffffffffffffffffffffffffffff1673ffffffffffffffffffffffffffffffffffffffff16815260200190815260200160002060020160009054906101000a900460ff169050919050565b60056020528060005260406000206000915090505481565b60026020528060005260406000206000915090505481565b610f77611067565b73ffffffffffffffffffffffffffffffffffffffff16610f95610d50565b73ffffffffffffffffffffffffffffffffffffffff1614610feb576040517f08c379a0000000000000000000000000000000000000000000000000000000008152600401610fe290611aae565b60405180910390fd5b600073ffffffffffffffffffffffffffffffffffffffff168173ffffffffffffffffffffffffffffffffffffffff16141561105b576040517f08c379a000000000000000000000000000000000000000000000000000000000815260040161105290611ba1565b60405180910390fd5b6110648161106f565b50565b600033905090565b60008060009054906101000a900473ffffffffffffffffffffffffffffffffffffffff169050816000806101000a81548173ffffffffffffffffffffffffffffffffffffffff021916908373ffffffffffffffffffffffffffffffffffffffff1602179055508173ffffffffffffffffffffffffffffffffffffffff168173ffffffffffffffffffffffffffffffffffffffff167f8be0079c531659141344cd1fd0a4f28419497f9722a3daafe3b4186f6b6457e060405160405180910390a35050565b82805461113f90611afd565b90600052602060002090601f01602090048101928261116157600085556111a8565b82601f1061117a57805160ff19168380011785556111a8565b828001600101855582156111a8579182015b828111156111a757825182559160200191906001019061118c565b5b5090506111b591906111b9565b5090565b5b808211156111d25760008160009055506001016111ba565b5090565b600073ffffffffffffffffffffffffffffffffffffffff82169050919050565b6000611201826111d6565b9050919050565b611211816111f6565b82525050565b6000819050919050565b61122a81611217565b82525050565b600082825260208201905092915050565b7f46616c6c6261636b207761732063616c6c656400000000000000000000000000600082015250565b6000611277601383611230565b915061128282611241565b602082019050919050565b60006060820190506112a26000830185611208565b6112af6020830184611221565b81810360408301526112c08161126a565b90509392505050565b60006020820190506112de6000830184611221565b92915050565b6000604051905090565b600080fd5b600080fd5b600080fd5b600080fd5b6000601f19601f8301169050919050565b7f4e487b7100000000000000000000000000000000000000000000000000000000600052604160045260246000fd5b61134b82611302565b810181811067ffffffffffffffff8211171561136a57611369611313565b5b80604052505050565b600061137d6112e4565b90506113898282611342565b919050565b600067ffffffffffffffff8211156113a9576113a8611313565b5b6113b282611302565b9050602081019050919050565b82818337600083830152505050565b60006113e16113dc8461138e565b611373565b9050828152602081018484840111156113fd576113fc6112fd565b5b6114088482856113bf565b509392505050565b600082601f830112611425576114246112f8565b5b81356114358482602086016113ce565b91505092915050565b60008060408385031215611455576114546112ee565b5b600083013567ffffffffffffffff811115611473576114726112f3565b5b61147f85828601611410565b925050602083013567ffffffffffffffff8111156114a05761149f6112f3565b5b6114ac85828601611410565b9150509250929050565b6000602082840312156114cc576114cb6112ee565b5b600082013567ffffffffffffffff8111156114ea576114e96112f3565b5b6114f684828501611410565b91505092915050565b60008115159050919050565b611514816114ff565b82525050565b600060408201905061152f600083018561150b565b61153c6020830184611208565b9392505050565b61154c81611217565b811461155757600080fd5b50565b60008135905061156981611543565b92915050565b60008060408385031215611586576115856112ee565b5b60006115948582860161155a565b925050602083013567ffffffffffffffff8111156115b5576115b46112f3565b5b6115c185828601611410565b9150509250929050565b6115d4816111f6565b81146115df57600080fd5b50565b6000813590506115f1816115cb565b92915050565b60006020828403121561160d5761160c6112ee565b5b600061161b848285016115e2565b91505092915050565b6000602082019050611639600083018461150b565b92915050565b60006020820190506116546000830184611208565b92915050565b600081519050919050565b60005b83811015611683578082015181840152602081019050611668565b83811115611692576000848401525b50505050565b60006116a38261165a565b6116ad8185611230565b93506116bd818560208601611665565b6116c681611302565b840191505092915050565b600060a08201905081810360008301526116eb8188611698565b905081810360208301526116ff8187611698565b905061170e604083018661150b565b61171b606083018561150b565b611728608083018461150b565b9695505050505050565b7f596f752061726520616c72656164792072656769737465726564000000000000600082015250565b6000611768601a83611230565b915061177382611732565b602082019050919050565b600060208201905081810360008301526117978161175b565b9050919050565b60006060820190506117b36000830186611208565b81810360208301526117c58185611698565b905081810360408301526117d98184611698565b9050949350505050565b7f596f75206861766520746f206265207265676973746572656420666972737400600082015250565b6000611819601f83611230565b9150611824826117e3565b602082019050919050565b600060208201905081810360008301526118488161180c565b9050919050565b7f596f752063616e206f6e6c792072656e7420312063617220617420612074696d60008201527f6500000000000000000000000000000000000000000000000000000000000000602082015250565b60006118ab602183611230565b91506118b68261184f565b604082019050919050565b600060208201905081810360008301526118da8161189e565b9050919050565b7f596f752068617665206265656e2062616e6e65642c20706c6561736520636f6e60008201527f7461637420737570706f72740000000000000000000000000000000000000000602082015250565b600061193d602c83611230565b9150611948826118e1565b604082019050919050565b6000602082019050818103600083015261196c81611930565b9050919050565b600081905092915050565b60006119898261165a565b6119938185611973565b93506119a3818560208601611665565b80840191505092915050565b60006119bb828461197e565b915081905092915050565b60006040820190506119db6000830185611208565b81810360208301526119ed8184611698565b90509392505050565b7f596f752068617665206e6f742072656e74656420616e79206361720000000000600082015250565b6000611a2c601b83611230565b9150611a37826119f6565b602082019050919050565b60006020820190508181036000830152611a5b81611a1f565b9050919050565b7f4f776e61626c653a2063616c6c6572206973206e6f7420746865206f776e6572600082015250565b6000611a98602083611230565b9150611aa382611a62565b602082019050919050565b60006020820190508181036000830152611ac781611a8b565b9050919050565b7f4e487b7100000000000000000000000000000000000000000000000000000000600052602260045260246000fd5b60006002820490506001821680611b1557607f821691505b60208210811415611b2957611b28611ace565b5b50919050565b7f4f776e61626c653a206e6577206f776e657220697320746865207a65726f206160008201527f6464726573730000000000000000000000000000000000000000000000000000602082015250565b6000611b8b602683611230565b9150611b9682611b2f565b604082019050919050565b60006020820190508181036000830152611bba81611b7e565b905091905056fea2646970667358221220e968287264ad07276a854611ad971f6e634145cdba06b104f29ae14b58069d3464736f6c634300080a0033",
  "immutableReferences": {},
  "source": "// SPDX-License-Identifier: MIT\npragma solidity 0.8.10;\n\nimport \"@openzeppelin/contracts/access/Ownable.sol\";\n\n/// @title A simulator for car sharing\n/// @author Elijah T.\n/// @notice You can use this contract for only the most basic simulation of car sharing service\n/// @dev All function calls are currently implemented without side effects\n\ninterface Registerable {\n\tfunction registerDriver(string memory name, string memory license) external;\n}\n\ncontract CarSharing is Registerable, Ownable{\n\n\tmapping ( address => uint ) private balance;\n\tmapping ( address => uint ) public rentStatus;\n\tmapping ( address => User ) public users;\n\tmapping ( string => Car ) public cars;\n\tmapping ( address => uint ) public registered;\n\n\t// TODO \n\t// Function to create vehicle records\n\tstruct Car {\n\tbool reserved;\n\taddress reservedBy;\n\t}\n\n\tstruct User {\n    string name;\n    string license;\n\tbool registered;\n\tbool rented;\n\tbool banned;\n  }\n\n\nmodifier registeredUser() {\n\t// checks if user is registered\n\trequire(users[msg.sender].registered, \"You have to be registered first\");\n\t_;\n}\n\nmodifier onlyRentOne() { \n\t// checks if driver is currently renting other car\n\trequire(!users[msg.sender].rented, \"You can only rent 1 car at a time\");\n\t_;\n}\n\nmodifier checkIfBanned() { \n\t// checks if driver is currently renting other car\n\trequire(!users[msg.sender].banned, \"You have been banned, please contact support\");\n\t_;\n}\n\nmodifier checkIfRented(string memory plateNo) { \n\t// checks if user has rented car\n\trequire(cars[plateNo].reserved, \"You have not rented any car\");\n\trequire(cars[plateNo].reservedBy == msg.sender, \"You have not rented any car\");\n\t_;\n}\n\n\n\nevent Received(address accountAddress, uint amount, string message);\nevent UserRegistered(address user, string name, string license);\nevent CarReserved(address user, string plateNo);\nevent CarReleased(address user, string plateNo);\n\n\nfallback() external payable {\n        emit Received(msg.sender, msg.value, \"Fallback was called\");\n    }\n\nfunction banUser(address _user) onlyOwner private\n    {\n        users[_user].banned = true;\n    }\n\nfunction registerDriver(string memory name, string memory license) public  {\n\t// check if already registered\n\trequire(!users[msg.sender].registered, \"You are already registered\");\n\n\t//registered[msg.sender] = 1;\n\n\t// registers driver\n\tusers[msg.sender] = User({\n     name: name, \n     license: license,\n\t registered: true,\n\t rented: false,\n\t banned: false\n    });\n\n\temit UserRegistered(msg.sender, name, license);\n}\n\nfunction unrentCar(string memory plateNo) public payable registeredUser() checkIfRented(plateNo) checkIfBanned(){\n\n\t// return stakeAmount - fees back to user\n\tuint refundAmount = balance[msg.sender];\n\tbalance[msg.sender] = 0;\n\n\t// finish rental of car and release the reservation slot\n\tusers[msg.sender].rented = false;\n\tcars[plateNo].reserved = false;\n\n\tpayable(msg.sender).call{ value: refundAmount};\n\temit CarReleased(msg.sender, plateNo);\n}\n\n\nfunction rentCar(uint x, string memory plateNo) public payable registeredUser() onlyRentOne() checkIfBanned(){\n\t\n\t// TODO\n\t// Set specific payable amount for user to reserve vehicle\n\t//balance[msg.sender] += x;\n\tusers[msg.sender].rented = true;\n\tcars[plateNo].reserved = true;\n\tcars[plateNo].reservedBy = msg.sender;\n\t// reserves and start rental of car\n\temit CarReserved(msg.sender, plateNo);\n}\n\nfunction getBalance() public view returns (uint) {\n\treturn balance[msg.sender];\n\t// reserves and start rental of car\n\n}\n\nfunction getRentStatus(address _user) public view returns (bool) {\n\treturn users[_user].rented;\n\t// reserves and start rental of car\n\n}\n\nfunction getRegistrationStatus(address _user) public view returns (bool) {\n\treturn users[_user].registered;\n\t// reserves and start rental of car\n\n}\n\n}",
  "sourcePath": "/Users/elijahchen/blockchain-developer-bootcamp/blockchain-developer-bootcamp-final-project/contracts/CarSharing.sol",
  "compiler": {
    "name": "solc",
    "version": "0.8.10+commit.fc410830.Emscripten.clang"
  },
  "schemaVersion": "3.4.3",
  "updatedAt": "2021-11-29T15:29:42.431Z",
  "networkType": "ethereum",
  "devdoc": {
    "kind": "dev",
    "methods": {
      "owner()": {
        "details": "Returns the address of the current owner."
      },
      "renounceOwnership()": {
        "details": "Leaves the contract without owner. It will not be possible to call `onlyOwner` functions anymore. Can only be called by the current owner. NOTE: Renouncing ownership will leave the contract without an owner, thereby removing any functionality that is only available to the owner."
      },
      "transferOwnership(address)": {
        "details": "Transfers ownership of the contract to a new account (`newOwner`). Can only be called by the current owner."
      }
    },
    "version": 1
  },
  "userdoc": {
    "kind": "user",
    "methods": {},
    "version": 1
  }
}