{
  "contractName": "CarSharing",
  "abi": [
    {
      "anonymous": false,
      "inputs": [
        {
          "indexed": false,
          "internalType": "address",
          "name": "user",
          "type": "address"
        },
        {
          "indexed": false,
          "internalType": "string",
          "name": "plateNo",
          "type": "string"
        }
      ],
      "name": "CarReleased",
      "type": "event"
    },
    {
      "anonymous": false,
      "inputs": [
        {
          "indexed": false,
          "internalType": "address",
          "name": "user",
          "type": "address"
        },
        {
          "indexed": false,
          "internalType": "string",
          "name": "plateNo",
          "type": "string"
        }
      ],
      "name": "CarReserved",
      "type": "event"
    },
    {
      "anonymous": false,
      "inputs": [
        {
          "indexed": true,
          "internalType": "address",
          "name": "previousOwner",
          "type": "address"
        },
        {
          "indexed": true,
          "internalType": "address",
          "name": "newOwner",
          "type": "address"
        }
      ],
      "name": "OwnershipTransferred",
      "type": "event"
    },
    {
      "anonymous": false,
      "inputs": [
        {
          "indexed": false,
          "internalType": "address",
          "name": "user",
          "type": "address"
        },
        {
          "indexed": false,
          "internalType": "string",
          "name": "name",
          "type": "string"
        },
        {
          "indexed": false,
          "internalType": "string",
          "name": "license",
          "type": "string"
        }
      ],
      "name": "UserRegistered",
      "type": "event"
    },
    {
      "inputs": [
        {
          "internalType": "string",
          "name": "",
          "type": "string"
        }
      ],
      "name": "cars",
      "outputs": [
        {
          "internalType": "bool",
          "name": "reserved",
          "type": "bool"
        },
        {
          "internalType": "address",
          "name": "reservedBy",
          "type": "address"
        }
      ],
      "stateMutability": "view",
      "type": "function",
      "constant": true
    },
    {
      "inputs": [],
      "name": "owner",
      "outputs": [
        {
          "internalType": "address",
          "name": "",
          "type": "address"
        }
      ],
      "stateMutability": "view",
      "type": "function",
      "constant": true
    },
    {
      "inputs": [
        {
          "internalType": "address",
          "name": "",
          "type": "address"
        }
      ],
      "name": "registered",
      "outputs": [
        {
          "internalType": "uint256",
          "name": "",
          "type": "uint256"
        }
      ],
      "stateMutability": "view",
      "type": "function",
      "constant": true
    },
    {
      "inputs": [],
      "name": "renounceOwnership",
      "outputs": [],
      "stateMutability": "nonpayable",
      "type": "function"
    },
    {
      "inputs": [
        {
          "internalType": "address",
          "name": "",
          "type": "address"
        }
      ],
      "name": "rentStatus",
      "outputs": [
        {
          "internalType": "uint256",
          "name": "",
          "type": "uint256"
        }
      ],
      "stateMutability": "view",
      "type": "function",
      "constant": true
    },
    {
      "inputs": [
        {
          "internalType": "address",
          "name": "newOwner",
          "type": "address"
        }
      ],
      "name": "transferOwnership",
      "outputs": [],
      "stateMutability": "nonpayable",
      "type": "function"
    },
    {
      "inputs": [
        {
          "internalType": "address",
          "name": "",
          "type": "address"
        }
      ],
      "name": "users",
      "outputs": [
        {
          "internalType": "string",
          "name": "name",
          "type": "string"
        },
        {
          "internalType": "string",
          "name": "license",
          "type": "string"
        },
        {
          "internalType": "bool",
          "name": "registered",
          "type": "bool"
        },
        {
          "internalType": "bool",
          "name": "rented",
          "type": "bool"
        },
        {
          "internalType": "bool",
          "name": "banned",
          "type": "bool"
        }
      ],
      "stateMutability": "view",
      "type": "function",
      "constant": true
    },
    {
      "inputs": [
        {
          "internalType": "string",
          "name": "name",
          "type": "string"
        },
        {
          "internalType": "string",
          "name": "license",
          "type": "string"
        }
      ],
      "name": "registerDriver",
      "outputs": [],
      "stateMutability": "nonpayable",
      "type": "function"
    },
    {
      "inputs": [
        {
          "internalType": "string",
          "name": "plateNo",
          "type": "string"
        }
      ],
      "name": "unrentCar",
      "outputs": [],
      "stateMutability": "payable",
      "type": "function",
      "payable": true
    },
    {
      "inputs": [
        {
          "internalType": "uint256",
          "name": "fee",
          "type": "uint256"
        },
        {
          "internalType": "string",
          "name": "plateNo",
          "type": "string"
        }
      ],
      "name": "rentCar",
      "outputs": [],
      "stateMutability": "payable",
      "type": "function",
      "payable": true
    },
    {
      "inputs": [],
      "name": "getBalance",
      "outputs": [
        {
          "internalType": "uint256",
          "name": "",
          "type": "uint256"
        }
      ],
      "stateMutability": "view",
      "type": "function",
      "constant": true
    },
    {
      "inputs": [
        {
          "internalType": "address",
          "name": "_user",
          "type": "address"
        }
      ],
      "name": "getRentStatus",
      "outputs": [
        {
          "internalType": "bool",
          "name": "",
          "type": "bool"
        }
      ],
      "stateMutability": "view",
      "type": "function",
      "constant": true
    },
    {
      "inputs": [
        {
          "internalType": "address",
          "name": "_user",
          "type": "address"
        }
      ],
      "name": "getRegistrationStatus",
      "outputs": [
        {
          "internalType": "bool",
          "name": "",
          "type": "bool"
        }
      ],
      "stateMutability": "view",
      "type": "function",
      "constant": true
    }
  ],
  "bytecode": "0x608060405234801561001057600080fd5b5061002d61002261003260201b60201c565b61003a60201b60201c565b6100fe565b600033905090565b60008060009054906101000a900473ffffffffffffffffffffffffffffffffffffffff169050816000806101000a81548173ffffffffffffffffffffffffffffffffffffffff021916908373ffffffffffffffffffffffffffffffffffffffff1602179055508173ffffffffffffffffffffffffffffffffffffffff168173ffffffffffffffffffffffffffffffffffffffff167f8be0079c531659141344cd1fd0a4f28419497f9722a3daafe3b4186f6b6457e060405160405180910390a35050565b611c0f8061010d6000396000f3fe6080604052600436106100c25760003560e01c8063855dce451161007f578063a8af4ff511610059578063a8af4ff514610251578063b2dd5c071461028e578063e4d48f67146102cb578063f2fde38b14610308576100c2565b8063855dce45146101a85780638da5cb5b146101e5578063a87430ba14610210576100c2565b806312065fe0146100c75780633390854f146100f257806341a2d1801461011b578063493d6fd014610159578063524baa5014610175578063715018a614610191575b600080fd5b3480156100d357600080fd5b506100dc610331565b6040516100e9919061120a565b60405180910390f35b3480156100fe57600080fd5b506101196004803603810190610114919061137f565b610378565b005b34801561012757600080fd5b50610142600480360381019061013d91906113f7565b610553565b60405161015092919061149c565b60405180910390f35b610173600480360381019061016e91906114f1565b6105ba565b005b61018f600480360381019061018a91906113f7565b6108f1565b005b34801561019d57600080fd5b506101a6610c8a565b005b3480156101b457600080fd5b506101cf60048036038101906101ca9190611579565b610d12565b6040516101dc91906115a6565b60405180910390f35b3480156101f157600080fd5b506101fa610d6b565b60405161020791906115c1565b60405180910390f35b34801561021c57600080fd5b5061023760048036038101906102329190611579565b610d94565b604051610248959493929190611664565b60405180910390f35b34801561025d57600080fd5b5061027860048036038101906102739190611579565b610f01565b60405161028591906115a6565b60405180910390f35b34801561029a57600080fd5b506102b560048036038101906102b09190611579565b610f5a565b6040516102c2919061120a565b60405180910390f35b3480156102d757600080fd5b506102f260048036038101906102ed9190611579565b610f72565b6040516102ff919061120a565b60405180910390f35b34801561031457600080fd5b5061032f600480360381019061032a9190611579565b610f8a565b005b6000600160003373ffffffffffffffffffffffffffffffffffffffff1673ffffffffffffffffffffffffffffffffffffffff16815260200190815260200160002054905090565b600360003373ffffffffffffffffffffffffffffffffffffffff1673ffffffffffffffffffffffffffffffffffffffff16815260200190815260200160002060020160009054906101000a900460ff1615610408576040517f08c379a00000000000000000000000000000000000000000000000000000000081526004016103ff90611711565b60405180910390fd5b6040518060a0016040528083815260200182815260200160011515815260200160001515815260200160001515815250600360003373ffffffffffffffffffffffffffffffffffffffff1673ffffffffffffffffffffffffffffffffffffffff168152602001908152602001600020600082015181600001908051906020019061049392919061114e565b5060208201518160010190805190602001906104b092919061114e565b5060408201518160020160006101000a81548160ff02191690831515021790555060608201518160020160016101000a81548160ff02191690831515021790555060808201518160020160026101000a81548160ff0219169083151502179055509050507f92822564bab8864c3a47b34e8d23fbce5c46234eb5da261f94087b995ac0f33b33838360405161054793929190611731565b60405180910390a15050565b6004818051602081018201805184825260208301602085012081835280955050505050506000915090508060000160009054906101000a900460ff16908060000160019054906101000a900473ffffffffffffffffffffffffffffffffffffffff16905082565b600360003373ffffffffffffffffffffffffffffffffffffffff1673ffffffffffffffffffffffffffffffffffffffff16815260200190815260200160002060020160009054906101000a900460ff16610649576040517f08c379a0000000000000000000000000000000000000000000000000000000008152600401610640906117c2565b60405180910390fd5b600360003373ffffffffffffffffffffffffffffffffffffffff1673ffffffffffffffffffffffffffffffffffffffff16815260200190815260200160002060020160019054906101000a900460ff16156106d9576040517f08c379a00000000000000000000000000000000000000000000000000000000081526004016106d090611854565b60405180910390fd5b600360003373ffffffffffffffffffffffffffffffffffffffff1673ffffffffffffffffffffffffffffffffffffffff16815260200190815260200160002060020160029054906101000a900460ff1615610769576040517f08c379a0000000000000000000000000000000000000000000000000000000008152600401610760906118e6565b60405180910390fd5b81600160003373ffffffffffffffffffffffffffffffffffffffff1673ffffffffffffffffffffffffffffffffffffffff16815260200190815260200160002060008282546107b89190611935565b925050819055506001600360003373ffffffffffffffffffffffffffffffffffffffff1673ffffffffffffffffffffffffffffffffffffffff16815260200190815260200160002060020160016101000a81548160ff021916908315150217905550600160048260405161082c91906119c7565b908152602001604051809103902060000160006101000a81548160ff0219169083151502179055503360048260405161086591906119c7565b908152602001604051809103902060000160016101000a81548173ffffffffffffffffffffffffffffffffffffffff021916908373ffffffffffffffffffffffffffffffffffffffff1602179055507fda064db6151e7abee2db76f38c7b7b8fd72fca8873ef130cf582722617e9a72933826040516108e59291906119de565b60405180910390a15050565b600360003373ffffffffffffffffffffffffffffffffffffffff1673ffffffffffffffffffffffffffffffffffffffff16815260200190815260200160002060020160009054906101000a900460ff16610980576040517f08c379a0000000000000000000000000000000000000000000000000000000008152600401610977906117c2565b60405180910390fd5b8060048160405161099191906119c7565b908152602001604051809103902060000160009054906101000a900460ff166109ef576040517f08c379a00000000000000000000000000000000000000000000000000000000081526004016109e690611a5a565b60405180910390fd5b3373ffffffffffffffffffffffffffffffffffffffff16600482604051610a1691906119c7565b908152602001604051809103902060000160019054906101000a900473ffffffffffffffffffffffffffffffffffffffff1673ffffffffffffffffffffffffffffffffffffffff1614610a9e576040517f08c379a0000000000000000000000000000000000000000000000000000000008152600401610a9590611a5a565b60405180910390fd5b600360003373ffffffffffffffffffffffffffffffffffffffff1673ffffffffffffffffffffffffffffffffffffffff16815260200190815260200160002060020160029054906101000a900460ff1615610b2e576040517f08c379a0000000000000000000000000000000000000000000000000000000008152600401610b25906118e6565b60405180910390fd5b6000600160003373ffffffffffffffffffffffffffffffffffffffff1673ffffffffffffffffffffffffffffffffffffffff1681526020019081526020016000205490506000600160003373ffffffffffffffffffffffffffffffffffffffff1673ffffffffffffffffffffffffffffffffffffffff168152602001908152602001600020819055506000600360003373ffffffffffffffffffffffffffffffffffffffff1673ffffffffffffffffffffffffffffffffffffffff16815260200190815260200160002060020160016101000a81548160ff0219169083151502179055506000600484604051610c2491906119c7565b908152602001604051809103902060000160006101000a81548160ff0219169083151502179055507f3fb606ad6e93d063dfb31f1df7f6e784a02f2f758195cf1489a399a2542cc9b93384604051610c7d9291906119de565b60405180910390a1505050565b610c92611082565b73ffffffffffffffffffffffffffffffffffffffff16610cb0610d6b565b73ffffffffffffffffffffffffffffffffffffffff1614610d06576040517f08c379a0000000000000000000000000000000000000000000000000000000008152600401610cfd90611ac6565b60405180910390fd5b610d10600061108a565b565b6000600360008373ffffffffffffffffffffffffffffffffffffffff1673ffffffffffffffffffffffffffffffffffffffff16815260200190815260200160002060020160019054906101000a900460ff169050919050565b60008060009054906101000a900473ffffffffffffffffffffffffffffffffffffffff16905090565b6003602052806000526040600020600091509050806000018054610db790611b15565b80601f0160208091040260200160405190810160405280929190818152602001828054610de390611b15565b8015610e305780601f10610e0557610100808354040283529160200191610e30565b820191906000526020600020905b815481529060010190602001808311610e1357829003601f168201915b505050505090806001018054610e4590611b15565b80601f0160208091040260200160405190810160405280929190818152602001828054610e7190611b15565b8015610ebe5780601f10610e9357610100808354040283529160200191610ebe565b820191906000526020600020905b815481529060010190602001808311610ea157829003601f168201915b5050505050908060020160009054906101000a900460ff16908060020160019054906101000a900460ff16908060020160029054906101000a900460ff16905085565b6000600360008373ffffffffffffffffffffffffffffffffffffffff1673ffffffffffffffffffffffffffffffffffffffff16815260200190815260200160002060020160009054906101000a900460ff169050919050565b60056020528060005260406000206000915090505481565b60026020528060005260406000206000915090505481565b610f92611082565b73ffffffffffffffffffffffffffffffffffffffff16610fb0610d6b565b73ffffffffffffffffffffffffffffffffffffffff1614611006576040517f08c379a0000000000000000000000000000000000000000000000000000000008152600401610ffd90611ac6565b60405180910390fd5b600073ffffffffffffffffffffffffffffffffffffffff168173ffffffffffffffffffffffffffffffffffffffff161415611076576040517f08c379a000000000000000000000000000000000000000000000000000000000815260040161106d90611bb9565b60405180910390fd5b61107f8161108a565b50565b600033905090565b60008060009054906101000a900473ffffffffffffffffffffffffffffffffffffffff169050816000806101000a81548173ffffffffffffffffffffffffffffffffffffffff021916908373ffffffffffffffffffffffffffffffffffffffff1602179055508173ffffffffffffffffffffffffffffffffffffffff168173ffffffffffffffffffffffffffffffffffffffff167f8be0079c531659141344cd1fd0a4f28419497f9722a3daafe3b4186f6b6457e060405160405180910390a35050565b82805461115a90611b15565b90600052602060002090601f01602090048101928261117c57600085556111c3565b82601f1061119557805160ff19168380011785556111c3565b828001600101855582156111c3579182015b828111156111c25782518255916020019190600101906111a7565b5b5090506111d091906111d4565b5090565b5b808211156111ed5760008160009055506001016111d5565b5090565b6000819050919050565b611204816111f1565b82525050565b600060208201905061121f60008301846111fb565b92915050565b6000604051905090565b600080fd5b600080fd5b600080fd5b600080fd5b6000601f19601f8301169050919050565b7f4e487b7100000000000000000000000000000000000000000000000000000000600052604160045260246000fd5b61128c82611243565b810181811067ffffffffffffffff821117156112ab576112aa611254565b5b80604052505050565b60006112be611225565b90506112ca8282611283565b919050565b600067ffffffffffffffff8211156112ea576112e9611254565b5b6112f382611243565b9050602081019050919050565b82818337600083830152505050565b600061132261131d846112cf565b6112b4565b90508281526020810184848401111561133e5761133d61123e565b5b611349848285611300565b509392505050565b600082601f83011261136657611365611239565b5b813561137684826020860161130f565b91505092915050565b600080604083850312156113965761139561122f565b5b600083013567ffffffffffffffff8111156113b4576113b3611234565b5b6113c085828601611351565b925050602083013567ffffffffffffffff8111156113e1576113e0611234565b5b6113ed85828601611351565b9150509250929050565b60006020828403121561140d5761140c61122f565b5b600082013567ffffffffffffffff81111561142b5761142a611234565b5b61143784828501611351565b91505092915050565b60008115159050919050565b61145581611440565b82525050565b600073ffffffffffffffffffffffffffffffffffffffff82169050919050565b60006114868261145b565b9050919050565b6114968161147b565b82525050565b60006040820190506114b1600083018561144c565b6114be602083018461148d565b9392505050565b6114ce816111f1565b81146114d957600080fd5b50565b6000813590506114eb816114c5565b92915050565b600080604083850312156115085761150761122f565b5b6000611516858286016114dc565b925050602083013567ffffffffffffffff81111561153757611536611234565b5b61154385828601611351565b9150509250929050565b6115568161147b565b811461156157600080fd5b50565b6000813590506115738161154d565b92915050565b60006020828403121561158f5761158e61122f565b5b600061159d84828501611564565b91505092915050565b60006020820190506115bb600083018461144c565b92915050565b60006020820190506115d6600083018461148d565b92915050565b600081519050919050565b600082825260208201905092915050565b60005b838110156116165780820151818401526020810190506115fb565b83811115611625576000848401525b50505050565b6000611636826115dc565b61164081856115e7565b93506116508185602086016115f8565b61165981611243565b840191505092915050565b600060a082019050818103600083015261167e818861162b565b90508181036020830152611692818761162b565b90506116a1604083018661144c565b6116ae606083018561144c565b6116bb608083018461144c565b9695505050505050565b7f596f752061726520616c72656164792072656769737465726564000000000000600082015250565b60006116fb601a836115e7565b9150611706826116c5565b602082019050919050565b6000602082019050818103600083015261172a816116ee565b9050919050565b6000606082019050611746600083018661148d565b8181036020830152611758818561162b565b9050818103604083015261176c818461162b565b9050949350505050565b7f596f75206861766520746f206265207265676973746572656420666972737400600082015250565b60006117ac601f836115e7565b91506117b782611776565b602082019050919050565b600060208201905081810360008301526117db8161179f565b9050919050565b7f596f752063616e206f6e6c792072656e7420312063617220617420612074696d60008201527f6500000000000000000000000000000000000000000000000000000000000000602082015250565b600061183e6021836115e7565b9150611849826117e2565b604082019050919050565b6000602082019050818103600083015261186d81611831565b9050919050565b7f596f752068617665206265656e2062616e6e65642c20706c6561736520636f6e60008201527f7461637420737570706f72740000000000000000000000000000000000000000602082015250565b60006118d0602c836115e7565b91506118db82611874565b604082019050919050565b600060208201905081810360008301526118ff816118c3565b9050919050565b7f4e487b7100000000000000000000000000000000000000000000000000000000600052601160045260246000fd5b6000611940826111f1565b915061194b836111f1565b9250827fffffffffffffffffffffffffffffffffffffffffffffffffffffffffffffffff038211156119805761197f611906565b5b828201905092915050565b600081905092915050565b60006119a1826115dc565b6119ab818561198b565b93506119bb8185602086016115f8565b80840191505092915050565b60006119d38284611996565b915081905092915050565b60006040820190506119f3600083018561148d565b8181036020830152611a05818461162b565b90509392505050565b7f596f752068617665206e6f742072656e74656420616e79206361720000000000600082015250565b6000611a44601b836115e7565b9150611a4f82611a0e565b602082019050919050565b60006020820190508181036000830152611a7381611a37565b9050919050565b7f4f776e61626c653a2063616c6c6572206973206e6f7420746865206f776e6572600082015250565b6000611ab06020836115e7565b9150611abb82611a7a565b602082019050919050565b60006020820190508181036000830152611adf81611aa3565b9050919050565b7f4e487b7100000000000000000000000000000000000000000000000000000000600052602260045260246000fd5b60006002820490506001821680611b2d57607f821691505b60208210811415611b4157611b40611ae6565b5b50919050565b7f4f776e61626c653a206e6577206f776e657220697320746865207a65726f206160008201527f6464726573730000000000000000000000000000000000000000000000000000602082015250565b6000611ba36026836115e7565b9150611bae82611b47565b604082019050919050565b60006020820190508181036000830152611bd281611b96565b905091905056fea2646970667358221220ffd258cb7de49b823c4d5b6f311cda231af832c93e71faf30808df1116d96c3b64736f6c634300080a0033",
  "immutableReferences": {},
  "source": "// SPDX-License-Identifier: MIT\npragma solidity 0.8.10;\n\nimport \"@openzeppelin/contracts/access/Ownable.sol\";\n\n/// @title A simulator for car sharing\n/// @author Elijah T.\n/// @notice You can use this contract for only the most basic simulation of car sharing service\n/// @dev All function calls are currently implemented without side effects\n\ninterface Registerable {\n\tfunction registerDriver(string memory name, string memory license) external;\n}\n\ncontract CarSharing is Registerable, Ownable{\n\n\tmapping ( address => uint ) private balance;\n\tmapping ( address => uint ) public rentStatus;\n\tmapping ( address => User ) public users;\n\tmapping ( string => Car ) public cars;\n\tmapping ( address => uint ) public registered;\n\n\tstruct Car {\n\tbool reserved;\n\taddress reservedBy;\n\t}\n\n\tstruct User {\n    string name;\n    string license;\n\tbool registered;\n\tbool rented;\n\tbool banned;\n  }\n\n/// @notice Checks if user is registered\nmodifier registeredUser() {\n\trequire(users[msg.sender].registered, \"You have to be registered first\");\n\t_;\n}\n\n/// @notice Checks if driver is currently renting other car\nmodifier onlyRentOne() { \n\trequire(!users[msg.sender].rented, \"You can only rent 1 car at a time\");\n\t_;\n}\n\n/// @notice Checks if user is banned\nmodifier checkIfBanned() { \n\trequire(!users[msg.sender].banned, \"You have been banned, please contact support\");\n\t_;\n}\n\n/// @notice Checks if user has reserved any cars\nmodifier checkIfRented(string memory plateNo) { \n\trequire(cars[plateNo].reserved, \"You have not rented any car\");\n\trequire(cars[plateNo].reservedBy == msg.sender, \"You have not rented any car\");\n\t_;\n}\n\n/// @notice Emitted when a user is registered\n/// @param user Account address\n/// @param name Name of user \n/// @param license Driving license\nevent UserRegistered(address user, string name, string license);\n\n/// @notice Emitted when a user reserves a car \n/// @param user Account address\n/// @param plateNo Reserved car plate no. \nevent CarReserved(address user, string plateNo);\n\n/// @notice Emitted when a user releases a reserved car \n/// @param user Account address\n/// @param plateNo Reserved car plate no. \nevent CarReleased(address user, string plateNo);\n\n /// @notice Bans a user with a given wallet address\n /// @param _user Wallet address of the user\nfunction banUser(address _user) onlyOwner private\n    {\n        users[_user].banned = true;\n    }\n\n/// @notice Registers a user \n/// @param name Name of user\n/// @param license Driving license of user\nfunction registerDriver(string memory name, string memory license) public  {\n\t// check if already registered\n\trequire(!users[msg.sender].registered, \"You are already registered\");\n\n\t//registered[msg.sender] = 1;\n\n\t// registers driver\n\tusers[msg.sender] = User({\n     name: name, \n     license: license,\n\t registered: true,\n\t rented: false,\n\t banned: false\n    });\n\n\temit UserRegistered(msg.sender, name, license);\n}\n\n/// @notice Releases a reserved car\n/// @param plateNo Plate No. of reserved car\nfunction unrentCar(string memory plateNo) public payable registeredUser() checkIfRented(plateNo) checkIfBanned(){\n\n\tuint refundAmount = balance[msg.sender];\n\tbalance[msg.sender] = 0;\n\tusers[msg.sender].rented = false;\n\tcars[plateNo].reserved = false;\n\tpayable(msg.sender).call{ value: refundAmount};\n\temit CarReleased(msg.sender, plateNo);\n}\n\n/// @notice Reserves a car\n/// @param fee Reserve fee\n/// @param plateNo Plate No. of unreserved car\nfunction rentCar(uint fee, string memory plateNo) public payable registeredUser() onlyRentOne() checkIfBanned(){\n\t\n\tbalance[msg.sender] += fee;\n\tusers[msg.sender].rented = true;\n\tcars[plateNo].reserved = true;\n\tcars[plateNo].reservedBy = msg.sender;\n\temit CarReserved(msg.sender, plateNo);\n}\n\n/// @notice Return balance of user\nfunction getBalance() public view returns (uint) {\n\treturn balance[msg.sender];\n}\n\n/// @notice Return reserve status of user\n/// @param _user Wallet address of user\nfunction getRentStatus(address _user) public view returns (bool) {\n\treturn users[_user].rented;\n}\n\n/// @notice Return registration status of user\n/// @param _user Wallet address of user\nfunction getRegistrationStatus(address _user) public view returns (bool) {\n\treturn users[_user].registered;\n}\n\n}",
  "sourcePath": "/Users/elijahchen/blockchain-developer-bootcamp/blockchain-developer-bootcamp-final-project/contracts/CarSharing.sol",
  "compiler": {
    "name": "solc",
    "version": "0.8.10+commit.fc410830.Emscripten.clang"
  },
  "schemaVersion": "3.4.3",
  "updatedAt": "2021-11-29T18:06:18.808Z",
  "networkType": "ethereum",
  "devdoc": {
    "events": {
      "CarReleased(address,string)": {
        "params": {
          "plateNo": "Reserved car plate no. ",
          "user": "Account address"
        }
      },
      "CarReserved(address,string)": {
        "params": {
          "plateNo": "Reserved car plate no. ",
          "user": "Account address"
        }
      },
      "UserRegistered(address,string,string)": {
        "params": {
          "license": "Driving license",
          "name": "Name of user ",
          "user": "Account address"
        }
      }
    },
    "kind": "dev",
    "methods": {
      "getRegistrationStatus(address)": {
        "params": {
          "_user": "Wallet address of user"
        }
      },
      "getRentStatus(address)": {
        "params": {
          "_user": "Wallet address of user"
        }
      },
      "owner()": {
        "details": "Returns the address of the current owner."
      },
      "registerDriver(string,string)": {
        "params": {
          "license": "Driving license of user",
          "name": "Name of user"
        }
      },
      "renounceOwnership()": {
        "details": "Leaves the contract without owner. It will not be possible to call `onlyOwner` functions anymore. Can only be called by the current owner. NOTE: Renouncing ownership will leave the contract without an owner, thereby removing any functionality that is only available to the owner."
      },
      "rentCar(uint256,string)": {
        "params": {
          "fee": "Reserve fee",
          "plateNo": "Plate No. of unreserved car"
        }
      },
      "transferOwnership(address)": {
        "details": "Transfers ownership of the contract to a new account (`newOwner`). Can only be called by the current owner."
      },
      "unrentCar(string)": {
        "params": {
          "plateNo": "Plate No. of reserved car"
        }
      }
    },
    "version": 1
  },
  "userdoc": {
    "events": {
      "CarReleased(address,string)": {
        "notice": "Emitted when a user releases a reserved car "
      },
      "CarReserved(address,string)": {
        "notice": "Emitted when a user reserves a car "
      },
      "UserRegistered(address,string,string)": {
        "notice": "Emitted when a user is registered"
      }
    },
    "kind": "user",
    "methods": {
      "getBalance()": {
        "notice": "Return balance of user"
      },
      "getRegistrationStatus(address)": {
        "notice": "Return registration status of user"
      },
      "getRentStatus(address)": {
        "notice": "Return reserve status of user"
      },
      "registerDriver(string,string)": {
        "notice": "Registers a user "
      },
      "rentCar(uint256,string)": {
        "notice": "Reserves a car"
      },
      "unrentCar(string)": {
        "notice": "Releases a reserved car"
      }
    },
    "version": 1
  }
}