{
  "contractName": "CarSharing",
  "abi": [
    {
      "inputs": [],
      "payable": false,
      "stateMutability": "nonpayable",
      "type": "constructor"
    },
    {
      "constant": true,
      "inputs": [
        {
          "internalType": "address",
          "name": "",
          "type": "address"
        }
      ],
      "name": "rentStatus",
      "outputs": [
        {
          "internalType": "uint256",
          "name": "",
          "type": "uint256"
        }
      ],
      "payable": false,
      "stateMutability": "view",
      "type": "function"
    },
    {
      "constant": true,
      "inputs": [
        {
          "internalType": "address",
          "name": "",
          "type": "address"
        }
      ],
      "name": "stakeAmount",
      "outputs": [
        {
          "internalType": "uint256",
          "name": "",
          "type": "uint256"
        }
      ],
      "payable": false,
      "stateMutability": "view",
      "type": "function"
    },
    {
      "constant": false,
      "inputs": [],
      "name": "rentCar",
      "outputs": [],
      "payable": true,
      "stateMutability": "payable",
      "type": "function"
    },
    {
      "constant": true,
      "inputs": [
        {
          "internalType": "address",
          "name": "_user",
          "type": "address"
        }
      ],
      "name": "getRentStatus",
      "outputs": [
        {
          "internalType": "uint256",
          "name": "",
          "type": "uint256"
        }
      ],
      "payable": false,
      "stateMutability": "view",
      "type": "function"
    }
  ],
  "bytecode": "0x608060405234801561001057600080fd5b506102b4806100206000396000f3fe60806040526004361061003f5760003560e01c80636ae241b314610044578063855dce451461004e578063bf135267146100b3578063e4d48f6714610118575b600080fd5b61004c61017d565b005b34801561005a57600080fd5b5061009d6004803603602081101561007157600080fd5b81019080803573ffffffffffffffffffffffffffffffffffffffff169060200190929190505050610206565b6040518082815260200191505060405180910390f35b3480156100bf57600080fd5b50610102600480360360208110156100d657600080fd5b81019080803573ffffffffffffffffffffffffffffffffffffffff16906020019092919050505061024f565b6040518082815260200191505060405180910390f35b34801561012457600080fd5b506101676004803603602081101561013b57600080fd5b81019080803573ffffffffffffffffffffffffffffffffffffffff169060200190929190505050610267565b6040518082815260200191505060405180910390f35b346000803373ffffffffffffffffffffffffffffffffffffffff1673ffffffffffffffffffffffffffffffffffffffff1681526020019081526020016000208190555060018060003373ffffffffffffffffffffffffffffffffffffffff1673ffffffffffffffffffffffffffffffffffffffff16815260200190815260200160002081905550565b6000600160008373ffffffffffffffffffffffffffffffffffffffff1673ffffffffffffffffffffffffffffffffffffffff168152602001908152602001600020549050919050565b60006020528060005260406000206000915090505481565b6001602052806000526040600020600091509050548156fea265627a7a72315820b305123daa7faf782f2250f4149e98715a1f069401b75f1b7882d9fb9b5100ee64736f6c63430005100032",
  "source": "// SPDX-License-Identifier: MIT\npragma solidity ^0.5.16 <0.9.0;\n\ncontract CarSharing {\n\n\tmapping ( address => uint ) public stakeAmount;\n\tmapping ( address => uint ) public rentStatus;\n\n\nconstructor () public {\n\n}\n// modifier onlyRentOne() { \n    \n// \t// checks if driver is currently renting other car\n// \t_;\n// };\n\n// function registerDriver(address _driver) {\n\n// \t// registers driver\n\n// };\n\n// function unrentCar(address _driver) {\n\n// \t// finish rental of car and release the reservation slot\n\n// };\n\nfunction rentCar() public payable {\n\tstakeAmount[msg.sender] = msg.value;\n\trentStatus[msg.sender] = 1;\n\t// reserves and start rental of car\n\n}\n\nfunction getRentStatus(address _user) public view returns (uint) {\n\treturn rentStatus[_user];\n\t// reserves and start rental of car\n\n}\n\n}",
  "sourcePath": "/Users/elijahchen/blockchain-developer-bootcamp/blockchain-developer-bootcamp-final-project/contracts/CarSharing.sol",
  "compiler": {
    "name": "solc",
    "version": "0.5.16+commit.9c3226ce.Emscripten.clang"
  },
  "schemaVersion": "3.4.3",
  "updatedAt": "2021-09-25T15:49:10.919Z",
  "networkType": "ethereum",
  "devdoc": {
    "methods": {}
  },
  "userdoc": {
    "methods": {}
  }
}