{
  "contractName": "Ownable",
  "abi": [
    {
      "inputs": [],
      "stateMutability": "nonpayable",
      "type": "constructor"
    },
    {
      "inputs": [],
      "name": "owner",
      "outputs": [
        {
          "internalType": "address",
          "name": "",
          "type": "address"
        }
      ],
      "stateMutability": "view",
      "type": "function"
    },
    {
      "inputs": [],
      "name": "isOwner",
      "outputs": [
        {
          "internalType": "bool",
          "name": "",
          "type": "bool"
        }
      ],
      "stateMutability": "view",
      "type": "function"
    }
  ],
  "bytecode": "0x608060405234801561001057600080fd5b50336000806101000a81548173ffffffffffffffffffffffffffffffffffffffff021916908373ffffffffffffffffffffffffffffffffffffffff1602179055506101bf806100606000396000f3fe608060405234801561001057600080fd5b50600436106100365760003560e01c80638da5cb5b1461003b5780638f32d59b14610059575b600080fd5b610043610077565b6040516100509190610138565b60405180910390f35b6100616100a0565b60405161006e919061016e565b60405180910390f35b60008060009054906101000a900473ffffffffffffffffffffffffffffffffffffffff16905090565b60008060009054906101000a900473ffffffffffffffffffffffffffffffffffffffff1673ffffffffffffffffffffffffffffffffffffffff163373ffffffffffffffffffffffffffffffffffffffff1614905090565b600073ffffffffffffffffffffffffffffffffffffffff82169050919050565b6000610122826100f7565b9050919050565b61013281610117565b82525050565b600060208201905061014d6000830184610129565b92915050565b60008115159050919050565b61016881610153565b82525050565b6000602082019050610183600083018461015f565b9291505056fea2646970667358221220b3bfc2738b0101f3b70dba0ee27c8168581677dfa04a37de5a97d86ee7eb384364736f6c634300080a0033",
  "immutableReferences": {},
  "source": "// SPDX-License-Identifier: MIT\npragma solidity ^0.8.5 <0.9.0;\n\n/// @title A simulator for car sharing\n/// @author Elijah T.\n/// @notice You can use this contract for only the most basic simulation\n/// @dev All function calls are currently implemented without side effects\n\ncontract Ownable \n{    \n  // Variable that maintains \n  // owner address\n  address private _owner;\n  \n  // Sets the original owner of \n  // contract when it is deployed\n  constructor()\n  {\n    _owner = msg.sender;\n  }\n  \n  // Publicly exposes who is the\n  // owner of this contract\n  function owner() public view returns(address) \n  {\n    return _owner;\n  }\n  \n  // onlyOwner modifier that validates only \n  // if caller of function is contract owner, \n  // otherwise not\n  modifier onlyOwner() \n  {\n    require(isOwner(),\n    \"Function accessible only by the owner !!\");\n    _;\n  }\n  \n  // function for owners to verify their ownership. \n  // Returns true for owners otherwise false\n  function isOwner() public view returns(bool) \n  {\n    return msg.sender == _owner;\n  }\n}\n\ninterface Token {\n\tfunction registerDriver(string memory name, string memory license) external;\n}\n\ncontract CarSharing is Token, Ownable{\n\n\tmapping ( address => uint ) private balance;\n\tmapping ( address => uint ) public rentStatus;\n\tmapping ( address => User ) public users;\n\tmapping ( string => Car ) public cars;\n\tmapping ( address => uint ) public registered;\n\n\t// TODO \n\t// Function to create vehicle records\n\tstruct Car {\n\tbool reserved;\n\taddress reservedBy;\n\t}\n\n\tstruct User {\n    string name;\n    string license;\n\tbool registered;\n\tbool rented;\n\tbool banned;\n  }\n\n\nmodifier registeredUser() {\n\t// checks if user is registered\n\trequire(users[msg.sender].registered, \"You have to be registered first\");\n\t_;\n}\n\nmodifier onlyRentOne() { \n\t// checks if driver is currently renting other car\n\trequire(!users[msg.sender].rented, \"You can only rent 1 car at a time\");\n\t_;\n}\n\nmodifier checkIfBanned() { \n\t// checks if driver is currently renting other car\n\trequire(!users[msg.sender].banned, \"You have been banned, please contact support\");\n\t_;\n}\n\nmodifier checkIfRented(string memory plateNo) { \n\t// checks if user has rented car\n\trequire(cars[plateNo].reserved, \"You have not rented any car\");\n\trequire(cars[plateNo].reservedBy == msg.sender, \"You have not rented any car\");\n\t_;\n}\n\n\n\nevent Received(address accountAddress, uint amount, string message);\nevent UserRegistered(address user, string name, string license);\nevent CarReserved(address user, string plateNo);\nevent CarReleased(address user, string plateNo);\n\n\nfallback() external payable {\n        emit Received(msg.sender, msg.value, \"Fallback was called\");\n    }\n\nfunction banUser(address _user) onlyOwner private\n    {\n        users[_user].banned = true;\n    }\n\nfunction registerDriver(string memory name, string memory license) public  {\n\t// check if already registered\n\trequire(!users[msg.sender].registered, \"You are already registered\");\n\n\t//registered[msg.sender] = 1;\n\n\t// registers driver\n\tusers[msg.sender] = User({\n     name: name, \n     license: license,\n\t registered: true,\n\t rented: false,\n\t banned: false\n    });\n\n\temit UserRegistered(msg.sender, name, license);\n}\n\nfunction unrentCar(string memory plateNo) public payable registeredUser() checkIfRented(plateNo) checkIfBanned(){\n\n\t// return stakeAmount - fees back to user\n\tuint refundAmount = balance[msg.sender];\n\tbalance[msg.sender] = 0;\n\n\t// finish rental of car and release the reservation slot\n\tusers[msg.sender].rented = false;\n\tcars[plateNo].reserved = false;\n\n\tpayable(msg.sender).call{ value: refundAmount};\n\temit CarReleased(msg.sender, plateNo);\n}\n\n\nfunction rentCar(uint x, string memory plateNo) public payable registeredUser() onlyRentOne() checkIfBanned(){\n\t\n\t// TODO\n\t// Set specific payable amount for user to reserve vehicle\n\t//balance[msg.sender] += x;\n\tusers[msg.sender].rented = true;\n\tcars[plateNo].reserved = true;\n\tcars[plateNo].reservedBy = msg.sender;\n\t// reserves and start rental of car\n\temit CarReserved(msg.sender, plateNo);\n}\n\nfunction getBalance() public view returns (uint) {\n\treturn balance[msg.sender];\n\t// reserves and start rental of car\n\n}\n\nfunction getRentStatus(address _user) public view returns (bool) {\n\treturn users[_user].rented;\n\t// reserves and start rental of car\n\n}\n\nfunction getRegistrationStatus(address _user) public view returns (bool) {\n\treturn users[_user].registered;\n\t// reserves and start rental of car\n\n}\n\n}",
  "sourcePath": "/Users/elijahchen/blockchain-developer-bootcamp/blockchain-developer-bootcamp-final-project/contracts/CarSharing.sol",
  "compiler": {
    "name": "solc",
    "version": "0.8.10+commit.fc410830.Emscripten.clang"
  },
  "schemaVersion": "3.4.3",
  "updatedAt": "2021-11-27T18:32:14.564Z",
  "devdoc": {
    "author": "Elijah T.",
    "details": "All function calls are currently implemented without side effects",
    "kind": "dev",
    "methods": {},
    "title": "A simulator for car sharing",
    "version": 1
  },
  "userdoc": {
    "kind": "user",
    "methods": {},
    "notice": "You can use this contract for only the most basic simulation",
    "version": 1
  }
}